{
  "_format": "hh-sol-artifact-1",
  "contractName": "PhygitalAssetNFT",
  "sourceName": "contracts/PhygitalAssetNFT.sol",
  "abi": [
    {
      "inputs": [],
      "stateMutability": "nonpayable",
      "type": "constructor"
    },
    {
      "anonymous": false,
      "inputs": [
        {
          "indexed": true,
          "internalType": "address",
          "name": "owner",
          "type": "address"
        },
        {
          "indexed": true,
          "internalType": "address",
          "name": "approved",
          "type": "address"
        },
        {
          "indexed": true,
          "internalType": "uint256",
          "name": "tokenId",
          "type": "uint256"
        }
      ],
      "name": "Approval",
      "type": "event"
    },
    {
      "anonymous": false,
      "inputs": [
        {
          "indexed": true,
          "internalType": "address",
          "name": "owner",
          "type": "address"
        },
        {
          "indexed": true,
          "internalType": "address",
          "name": "operator",
          "type": "address"
        },
        {
          "indexed": false,
          "internalType": "bool",
          "name": "approved",
          "type": "bool"
        }
      ],
      "name": "ApprovalForAll",
      "type": "event"
    },
    {
      "anonymous": false,
      "inputs": [
        {
          "indexed": true,
          "internalType": "address",
          "name": "previousOwner",
          "type": "address"
        },
        {
          "indexed": true,
          "internalType": "address",
          "name": "newOwner",
          "type": "address"
        }
      ],
      "name": "OwnershipTransferred",
      "type": "event"
    },
    {
      "anonymous": false,
      "inputs": [
        {
          "indexed": true,
          "internalType": "uint256",
          "name": "tokenId",
          "type": "uint256"
        },
        {
          "indexed": true,
          "internalType": "string",
          "name": "threadId",
          "type": "string"
        },
        {
          "indexed": true,
          "internalType": "address",
          "name": "owner",
          "type": "address"
        },
        {
          "indexed": false,
          "internalType": "string",
          "name": "username",
          "type": "string"
        },
        {
          "indexed": false,
          "internalType": "string",
          "name": "buildingId",
          "type": "string"
        }
      ],
      "name": "ThreadMinted",
      "type": "event"
    },
    {
      "anonymous": false,
      "inputs": [
        {
          "indexed": true,
          "internalType": "uint256",
          "name": "tokenId",
          "type": "uint256"
        },
        {
          "indexed": true,
          "internalType": "address",
          "name": "from",
          "type": "address"
        },
        {
          "indexed": true,
          "internalType": "address",
          "name": "to",
          "type": "address"
        },
        {
          "indexed": false,
          "internalType": "string",
          "name": "threadId",
          "type": "string"
        }
      ],
      "name": "ThreadTransferred",
      "type": "event"
    },
    {
      "anonymous": false,
      "inputs": [
        {
          "indexed": true,
          "internalType": "address",
          "name": "from",
          "type": "address"
        },
        {
          "indexed": true,
          "internalType": "address",
          "name": "to",
          "type": "address"
        },
        {
          "indexed": true,
          "internalType": "uint256",
          "name": "tokenId",
          "type": "uint256"
        }
      ],
      "name": "Transfer",
      "type": "event"
    },
    {
      "inputs": [
        {
          "internalType": "address",
          "name": "to",
          "type": "address"
        },
        {
          "internalType": "uint256",
          "name": "tokenId",
          "type": "uint256"
        }
      ],
      "name": "approve",
      "outputs": [],
      "stateMutability": "nonpayable",
      "type": "function"
    },
    {
      "inputs": [
        {
          "internalType": "address",
          "name": "owner",
          "type": "address"
        }
      ],
      "name": "balanceOf",
      "outputs": [
        {
          "internalType": "uint256",
          "name": "",
          "type": "uint256"
        }
      ],
      "stateMutability": "view",
      "type": "function"
    },
    {
      "inputs": [
        {
          "internalType": "uint256",
          "name": "tokenId",
          "type": "uint256"
        }
      ],
      "name": "getApproved",
      "outputs": [
        {
          "internalType": "address",
          "name": "",
          "type": "address"
        }
      ],
      "stateMutability": "view",
      "type": "function"
    },
    {
      "inputs": [],
      "name": "getContractInfo",
      "outputs": [
        {
          "internalType": "string",
          "name": "contractName",
          "type": "string"
        },
        {
          "internalType": "string",
          "name": "contractSymbol",
          "type": "string"
        },
        {
          "internalType": "uint256",
          "name": "totalSupplyCount",
          "type": "uint256"
        },
        {
          "internalType": "address",
          "name": "contractOwner",
          "type": "address"
        }
      ],
      "stateMutability": "view",
      "type": "function"
    },
    {
      "inputs": [
        {
          "internalType": "uint256",
          "name": "tokenId",
          "type": "uint256"
        }
      ],
      "name": "getThreadMetadata",
      "outputs": [
        {
          "components": [
            {
              "internalType": "string",
              "name": "threadId",
              "type": "string"
            },
            {
              "internalType": "string",
              "name": "username",
              "type": "string"
            },
            {
              "internalType": "string",
              "name": "buildingId",
              "type": "string"
            },
            {
              "internalType": "string",
              "name": "description",
              "type": "string"
            },
            {
              "internalType": "string",
              "name": "imageUrl",
              "type": "string"
            },
            {
              "internalType": "uint256",
              "name": "createdAt",
              "type": "uint256"
            }
          ],
          "internalType": "struct PhygitalAssetNFT.ThreadMetadata",
          "name": "",
          "type": "tuple"
        }
      ],
      "stateMutability": "view",
      "type": "function"
    },
    {
      "inputs": [
        {
          "internalType": "string",
          "name": "threadId",
          "type": "string"
        }
      ],
      "name": "getTokenIdByThreadId",
      "outputs": [
        {
          "internalType": "uint256",
          "name": "",
          "type": "uint256"
        }
      ],
      "stateMutability": "view",
      "type": "function"
    },
    {
      "inputs": [
        {
          "internalType": "address",
          "name": "user",
          "type": "address"
        }
      ],
      "name": "getUserTokenCount",
      "outputs": [
        {
          "internalType": "uint256",
          "name": "",
          "type": "uint256"
        }
      ],
      "stateMutability": "view",
      "type": "function"
    },
    {
      "inputs": [
        {
          "internalType": "address",
          "name": "user",
          "type": "address"
        }
      ],
      "name": "getUserTokens",
      "outputs": [
        {
          "internalType": "uint256[]",
          "name": "",
          "type": "uint256[]"
        }
      ],
      "stateMutability": "view",
      "type": "function"
    },
    {
      "inputs": [
        {
          "internalType": "address",
          "name": "owner",
          "type": "address"
        },
        {
          "internalType": "address",
          "name": "operator",
          "type": "address"
        }
      ],
      "name": "isApprovedForAll",
      "outputs": [
        {
          "internalType": "bool",
          "name": "",
          "type": "bool"
        }
      ],
      "stateMutability": "view",
      "type": "function"
    },
    {
      "inputs": [
        {
          "internalType": "string",
          "name": "threadId",
          "type": "string"
        }
      ],
      "name": "isThreadMinted",
      "outputs": [
        {
          "internalType": "bool",
          "name": "",
          "type": "bool"
        }
      ],
      "stateMutability": "view",
      "type": "function"
    },
    {
      "inputs": [
        {
          "internalType": "string",
          "name": "_threadId",
          "type": "string"
        },
        {
          "internalType": "string",
          "name": "_username",
          "type": "string"
        },
        {
          "internalType": "string",
          "name": "_buildingId",
          "type": "string"
        },
        {
          "internalType": "string",
          "name": "_description",
          "type": "string"
        },
        {
          "internalType": "string",
          "name": "_imageUrl",
          "type": "string"
        }
      ],
      "name": "mintThread",
      "outputs": [
        {
          "internalType": "uint256",
          "name": "",
          "type": "uint256"
        }
      ],
      "stateMutability": "nonpayable",
      "type": "function"
    },
    {
      "inputs": [],
      "name": "name",
      "outputs": [
        {
          "internalType": "string",
          "name": "",
          "type": "string"
        }
      ],
      "stateMutability": "view",
      "type": "function"
    },
    {
      "inputs": [],
      "name": "owner",
      "outputs": [
        {
          "internalType": "address",
          "name": "",
          "type": "address"
        }
      ],
      "stateMutability": "view",
      "type": "function"
    },
    {
      "inputs": [
        {
          "internalType": "uint256",
          "name": "tokenId",
          "type": "uint256"
        }
      ],
      "name": "ownerOf",
      "outputs": [
        {
          "internalType": "address",
          "name": "",
          "type": "address"
        }
      ],
      "stateMutability": "view",
      "type": "function"
    },
    {
      "inputs": [],
      "name": "renounceOwnership",
      "outputs": [],
      "stateMutability": "nonpayable",
      "type": "function"
    },
    {
      "inputs": [
        {
          "internalType": "address",
          "name": "from",
          "type": "address"
        },
        {
          "internalType": "address",
          "name": "to",
          "type": "address"
        },
        {
          "internalType": "uint256",
          "name": "tokenId",
          "type": "uint256"
        }
      ],
      "name": "safeTransferFrom",
      "outputs": [],
      "stateMutability": "nonpayable",
      "type": "function"
    },
    {
      "inputs": [
        {
          "internalType": "address",
          "name": "from",
          "type": "address"
        },
        {
          "internalType": "address",
          "name": "to",
          "type": "address"
        },
        {
          "internalType": "uint256",
          "name": "tokenId",
          "type": "uint256"
        },
        {
          "internalType": "bytes",
          "name": "data",
          "type": "bytes"
        }
      ],
      "name": "safeTransferFrom",
      "outputs": [],
      "stateMutability": "nonpayable",
      "type": "function"
    },
    {
      "inputs": [
        {
          "internalType": "address",
          "name": "operator",
          "type": "address"
        },
        {
          "internalType": "bool",
          "name": "approved",
          "type": "bool"
        }
      ],
      "name": "setApprovalForAll",
      "outputs": [],
      "stateMutability": "nonpayable",
      "type": "function"
    },
    {
      "inputs": [
        {
          "internalType": "bytes4",
          "name": "interfaceId",
          "type": "bytes4"
        }
      ],
      "name": "supportsInterface",
      "outputs": [
        {
          "internalType": "bool",
          "name": "",
          "type": "bool"
        }
      ],
      "stateMutability": "view",
      "type": "function"
    },
    {
      "inputs": [],
      "name": "symbol",
      "outputs": [
        {
          "internalType": "string",
          "name": "",
          "type": "string"
        }
      ],
      "stateMutability": "view",
      "type": "function"
    },
    {
      "inputs": [
        {
          "internalType": "string",
          "name": "",
          "type": "string"
        }
      ],
      "name": "threadIdToTokenId",
      "outputs": [
        {
          "internalType": "uint256",
          "name": "",
          "type": "uint256"
        }
      ],
      "stateMutability": "view",
      "type": "function"
    },
    {
      "inputs": [
        {
          "internalType": "uint256",
          "name": "",
          "type": "uint256"
        }
      ],
      "name": "threadMetadata",
      "outputs": [
        {
          "internalType": "string",
          "name": "threadId",
          "type": "string"
        },
        {
          "internalType": "string",
          "name": "username",
          "type": "string"
        },
        {
          "internalType": "string",
          "name": "buildingId",
          "type": "string"
        },
        {
          "internalType": "string",
          "name": "description",
          "type": "string"
        },
        {
          "internalType": "string",
          "name": "imageUrl",
          "type": "string"
        },
        {
          "internalType": "uint256",
          "name": "createdAt",
          "type": "uint256"
        }
      ],
      "stateMutability": "view",
      "type": "function"
    },
    {
      "inputs": [
        {
          "internalType": "uint256",
          "name": "tokenId",
          "type": "uint256"
        }
      ],
      "name": "tokenURI",
      "outputs": [
        {
          "internalType": "string",
          "name": "",
          "type": "string"
        }
      ],
      "stateMutability": "view",
      "type": "function"
    },
    {
      "inputs": [],
      "name": "totalSupply",
      "outputs": [
        {
          "internalType": "uint256",
          "name": "",
          "type": "uint256"
        }
      ],
      "stateMutability": "view",
      "type": "function"
    },
    {
      "inputs": [
        {
          "internalType": "address",
          "name": "from",
          "type": "address"
        },
        {
          "internalType": "address",
          "name": "to",
          "type": "address"
        },
        {
          "internalType": "uint256",
          "name": "tokenId",
          "type": "uint256"
        }
      ],
      "name": "transferFrom",
      "outputs": [],
      "stateMutability": "nonpayable",
      "type": "function"
    },
    {
      "inputs": [
        {
          "internalType": "address",
          "name": "newOwner",
          "type": "address"
        }
      ],
      "name": "transferOwnership",
      "outputs": [],
      "stateMutability": "nonpayable",
      "type": "function"
    },
    {
      "inputs": [
        {
          "internalType": "address",
          "name": "",
          "type": "address"
        },
        {
          "internalType": "uint256",
          "name": "",
          "type": "uint256"
        }
      ],
      "name": "userTokens",
      "outputs": [
        {
          "internalType": "uint256",
          "name": "",
          "type": "uint256"
        }
      ],
      "stateMutability": "view",
      "type": "function"
    }
  ],
  "bytecode": "0x60806040523480156200001157600080fd5b506040518060400160405280601581526020017f506879676974616c2041737365742054687265616400000000000000000000008152506040518060400160405280600381526020016214105560ea1b8152508160009081620000759190620001a2565b506001620000848282620001a2565b505050620000a16200009b620000a760201b60201c565b620000ab565b6200026e565b3390565b600680546001600160a01b038381166001600160a01b0319831681179093556040519116919082907f8be0079c531659141344cd1fd0a4f28419497f9722a3daafe3b4186f6b6457e090600090a35050565b634e487b7160e01b600052604160045260246000fd5b600181811c908216806200012857607f821691505b6020821081036200014957634e487b7160e01b600052602260045260246000fd5b50919050565b601f8211156200019d57600081815260208120601f850160051c81016020861015620001785750805b601f850160051c820191505b81811015620001995782815560010162000184565b5050505b505050565b81516001600160401b03811115620001be57620001be620000fd565b620001d681620001cf845462000113565b846200014f565b602080601f8311600181146200020e5760008415620001f55750858301515b600019600386901b1c1916600185901b17855562000199565b600085815260208120601f198616915b828110156200023f578886015182559484019460019091019084016200021e565b50858210156200025e5787850151600019600388901b60f8161c191681555b5050505050600190811b01905550565b6127db806200027e6000396000f3fe608060405234801561001057600080fd5b50600436106101a95760003560e01c806370a08231116100f9578063b88d4fde11610097578063e61e074a11610071578063e61e074a146103c6578063e985e9c5146103f1578063f2fde38b1461042d578063f9f411d81461044057600080fd5b8063b88d4fde14610377578063b8a6f4021461038a578063c87b56dd146103b357600080fd5b80638da5cb5b116100d35780638da5cb5b1461033857806395d89b411461034957806397e260bd14610351578063a22cb4651461036457600080fd5b806370a0823114610305578063715018a6146103185780637cc1f8671461032057600080fd5b806323b872dd11610166578063587cfc0011610140578063587cfc001461029a5780635dadd64b146102bf5780636352211e146102d257806368bbdcea146102e557600080fd5b806323b872dd1461025457806342842e0e14610267578063519dc8d21461027a57600080fd5b806301ffc9a7146101ae57806305ba6976146101d657806306fdde03146101e9578063081812fc146101fe578063095ea7b31461022957806318160ddd1461023e575b600080fd5b6101c16101bc366004611f29565b610453565b60405190151581526020015b60405180910390f35b6101c16101e4366004611ff2565b6104a5565b6101f16104cf565b6040516101cd9190612077565b61021161020c36600461208a565b610561565b6040516001600160a01b0390911681526020016101cd565b61023c6102373660046120bf565b610588565b005b6102466106a2565b6040519081526020016101cd565b61023c6102623660046120e9565b6106b2565b61023c6102753660046120e9565b6106e3565b61028d610288366004612125565b6106fe565b6040516101cd9190612140565b6102ad6102a836600461208a565b61076a565b6040516101cd96959493929190612184565b6102466102cd3660046121f9565b610a46565b6102116102e036600461208a565b610c79565b6102f86102f336600461208a565b610cd9565b6040516101cd91906122cb565b610246610313366004612125565b611070565b61023c6110f6565b61032861110a565b6040516101cd9493929190612374565b6006546001600160a01b0316610211565b6101f1611142565b61024661035f366004611ff2565b611151565b61023c6103723660046123bb565b611179565b61023c6103853660046123f7565b611188565b610246610398366004612125565b6001600160a01b03166000908152600a602052604090205490565b6101f16103c136600461208a565b6111c0565b6102466103d4366004611ff2565b805160208183018101805160098252928201919093012091525481565b6101c16103ff366004612473565b6001600160a01b03918216600090815260056020908152604080832093909416825291909152205460ff1690565b61023c61043b366004612125565b611234565b61024661044e3660046120bf565b6112ad565b60006001600160e01b031982166380ac58cd60e01b148061048457506001600160e01b03198216635b5e139f60e01b145b8061049f57506301ffc9a760e01b6001600160e01b03198316145b92915050565b6000806009836040516104b891906124a6565b908152602001604051809103902054119050919050565b6060600080546104de906124c2565b80601f016020809104026020016040519081016040528092919081815260200182805461050a906124c2565b80156105575780601f1061052c57610100808354040283529160200191610557565b820191906000526020600020905b81548152906001019060200180831161053a57829003601f168201915b5050505050905090565b600061056c826112de565b506000908152600460205260409020546001600160a01b031690565b600061059382610c79565b9050806001600160a01b0316836001600160a01b0316036106055760405162461bcd60e51b815260206004820152602160248201527f4552433732313a20617070726f76616c20746f2063757272656e74206f776e656044820152603960f91b60648201526084015b60405180910390fd5b336001600160a01b0382161480610621575061062181336103ff565b6106935760405162461bcd60e51b815260206004820152603d60248201527f4552433732313a20617070726f76652063616c6c6572206973206e6f7420746f60448201527f6b656e206f776e6572206f7220617070726f76656420666f7220616c6c00000060648201526084016105fc565b61069d838361133d565b505050565b60006106ad60075490565b905090565b6106bc33826113ab565b6106d85760405162461bcd60e51b81526004016105fc906124fc565b61069d83838361142a565b61069d83838360405180602001604052806000815250611188565b6001600160a01b0381166000908152600a602090815260409182902080548351818402810184019094528084526060939283018282801561075e57602002820191906000526020600020905b81548152602001906001019080831161074a575b50505050509050919050565b600860205260009081526040902080548190610785906124c2565b80601f01602080910402602001604051908101604052809291908181526020018280546107b1906124c2565b80156107fe5780601f106107d3576101008083540402835291602001916107fe565b820191906000526020600020905b8154815290600101906020018083116107e157829003601f168201915b505050505090806001018054610813906124c2565b80601f016020809104026020016040519081016040528092919081815260200182805461083f906124c2565b801561088c5780601f106108615761010080835404028352916020019161088c565b820191906000526020600020905b81548152906001019060200180831161086f57829003601f168201915b5050505050908060020180546108a1906124c2565b80601f01602080910402602001604051908101604052809291908181526020018280546108cd906124c2565b801561091a5780601f106108ef5761010080835404028352916020019161091a565b820191906000526020600020905b8154815290600101906020018083116108fd57829003601f168201915b50505050509080600301805461092f906124c2565b80601f016020809104026020016040519081016040528092919081815260200182805461095b906124c2565b80156109a85780601f1061097d576101008083540402835291602001916109a8565b820191906000526020600020905b81548152906001019060200180831161098b57829003601f168201915b5050505050908060040180546109bd906124c2565b80601f01602080910402602001604051908101604052809291908181526020018280546109e9906124c2565b8015610a365780601f10610a0b57610100808354040283529160200191610a36565b820191906000526020600020905b815481529060010190602001808311610a1957829003601f168201915b5050505050908060050154905086565b6000610a5061159b565b600986604051610a6091906124a6565b908152602001604051809103902054600014610ab65760405162461bcd60e51b8152602060048201526015602482015274151a1c99585908185b1c9958591e481b5a5b9d1959605a1b60448201526064016105fc565b6000865111610b075760405162461bcd60e51b815260206004820152601960248201527f5468726561642049442063616e6e6f7420626520656d7074790000000000000060448201526064016105fc565b610b15600780546001019055565b6000610b2060075490565b9050610b2c33826115f5565b6040805160c081018252888152602080820189905281830188905260608201879052608082018690524260a0830152600084815260089091529190912081518190610b779082612597565b5060208201516001820190610b8c9082612597565b5060408201516002820190610ba19082612597565b5060608201516003820190610bb69082612597565b5060808201516004820190610bcb9082612597565b5060a0820151816005015590505080600988604051610bea91906124a6565b90815260408051918290036020908101832093909355336000818152600a8552918220805460018101825590835293909120909201839055610c2d9089906124a6565b6040518091039020827f959931448349d8992477ea37807e3461ac237442d9306ed574c7f601b6dacfb08989604051610c67929190612657565b60405180910390a49695505050505050565b6000818152600260205260408120546001600160a01b03168061049f5760405162461bcd60e51b8152602060048201526018602482015277115490cdcc8c4e881a5b9d985b1a59081d1bdad95b88125160421b60448201526064016105fc565b610d126040518060c001604052806060815260200160608152602001606081526020016060815260200160608152602001600081525090565b6000828152600260205260409020546001600160a01b0316610d6d5760405162461bcd60e51b8152602060048201526014602482015273151bdad95b88191bd95cc81b9bdd08195e1a5cdd60621b60448201526064016105fc565b60008281526008602052604090819020815160c08101909252805482908290610d95906124c2565b80601f0160208091040260200160405190810160405280929190818152602001828054610dc1906124c2565b8015610e0e5780601f10610de357610100808354040283529160200191610e0e565b820191906000526020600020905b815481529060010190602001808311610df157829003601f168201915b50505050508152602001600182018054610e27906124c2565b80601f0160208091040260200160405190810160405280929190818152602001828054610e53906124c2565b8015610ea05780601f10610e7557610100808354040283529160200191610ea0565b820191906000526020600020905b815481529060010190602001808311610e8357829003601f168201915b50505050508152602001600282018054610eb9906124c2565b80601f0160208091040260200160405190810160405280929190818152602001828054610ee5906124c2565b8015610f325780601f10610f0757610100808354040283529160200191610f32565b820191906000526020600020905b815481529060010190602001808311610f1557829003601f168201915b50505050508152602001600382018054610f4b906124c2565b80601f0160208091040260200160405190810160405280929190818152602001828054610f77906124c2565b8015610fc45780601f10610f9957610100808354040283529160200191610fc4565b820191906000526020600020905b815481529060010190602001808311610fa757829003601f168201915b50505050508152602001600482018054610fdd906124c2565b80601f0160208091040260200160405190810160405280929190818152602001828054611009906124c2565b80156110565780601f1061102b57610100808354040283529160200191611056565b820191906000526020600020905b81548152906001019060200180831161103957829003601f168201915b505050505081526020016005820154815250509050919050565b60006001600160a01b0382166110da5760405162461bcd60e51b815260206004820152602960248201527f4552433732313a2061646472657373207a65726f206973206e6f7420612076616044820152683634b21037bbb732b960b91b60648201526084016105fc565b506001600160a01b031660009081526003602052604090205490565b6110fe61159b565b611108600061160f565b565b6060806000806111186104cf565b611120611142565b6111286106a2565b6006546001600160a01b0316935093509350935090919293565b6060600180546104de906124c2565b600060098260405161116391906124a6565b9081526020016040518091039020549050919050565b611184338383611661565b5050565b61119233836113ab565b6111ae5760405162461bcd60e51b81526004016105fc906124fc565b6111ba8484848461172f565b50505050565b60606111cb826112de565b60006111e260408051602081019091526000815290565b90506000815111611202576040518060200160405280600081525061122d565b8061120c84611762565b60405160200161121d929190612685565b6040516020818303038152906040525b9392505050565b61123c61159b565b6001600160a01b0381166112a15760405162461bcd60e51b815260206004820152602660248201527f4f776e61626c653a206e6577206f776e657220697320746865207a65726f206160448201526564647265737360d01b60648201526084016105fc565b6112aa8161160f565b50565b600a60205281600052604060002081815481106112c957600080fd5b90600052602060002001600091509150505481565b6000818152600260205260409020546001600160a01b03166112aa5760405162461bcd60e51b8152602060048201526018602482015277115490cdcc8c4e881a5b9d985b1a59081d1bdad95b88125160421b60448201526064016105fc565b600081815260046020526040902080546001600160a01b0319166001600160a01b038416908117909155819061137282610c79565b6001600160a01b03167f8c5be1e5ebec7d5bd14f71427d1e84f3dd0314c0f7b2291e5b200ac8c7c3b92560405160405180910390a45050565b6000806113b783610c79565b9050806001600160a01b0316846001600160a01b031614806113fe57506001600160a01b0380821660009081526005602090815260408083209388168352929052205460ff165b806114225750836001600160a01b031661141784610561565b6001600160a01b0316145b949350505050565b826001600160a01b031661143d82610c79565b6001600160a01b0316146114635760405162461bcd60e51b81526004016105fc906126b4565b6001600160a01b0382166114c55760405162461bcd60e51b8152602060048201526024808201527f4552433732313a207472616e7366657220746f20746865207a65726f206164646044820152637265737360e01b60648201526084016105fc565b6114d283838360016117f5565b826001600160a01b03166114e582610c79565b6001600160a01b03161461150b5760405162461bcd60e51b81526004016105fc906126b4565b600081815260046020908152604080832080546001600160a01b03199081169091556001600160a01b0387811680865260038552838620805460001901905590871680865283862080546001019055868652600290945282852080549092168417909155905184937fddf252ad1be2c89b69c2b068fc378daa952ba7f163c4a11628f55a4df523b3ef91a4505050565b6006546001600160a01b031633146111085760405162461bcd60e51b815260206004820181905260248201527f4f776e61626c653a2063616c6c6572206973206e6f7420746865206f776e657260448201526064016105fc565b611184828260405180602001604052806000815250611b6e565b600680546001600160a01b038381166001600160a01b0319831681179093556040519116919082907f8be0079c531659141344cd1fd0a4f28419497f9722a3daafe3b4186f6b6457e090600090a35050565b816001600160a01b0316836001600160a01b0316036116c25760405162461bcd60e51b815260206004820152601960248201527f4552433732313a20617070726f766520746f2063616c6c65720000000000000060448201526064016105fc565b6001600160a01b03838116600081815260056020908152604080832094871680845294825291829020805460ff191686151590811790915591519182527f17307eab39ab6107e8899845ad3d59bd9653f200f220920489ca2b5937696c31910160405180910390a3505050565b61173a84848461142a565b61174684848484611ba1565b6111ba5760405162461bcd60e51b81526004016105fc906126f9565b6060600061176f83611ca2565b600101905060008167ffffffffffffffff81111561178f5761178f611f46565b6040519080825280601f01601f1916602001820160405280156117b9576020820181803683370190505b5090508181016020015b600019016f181899199a1a9b1b9c1cb0b131b232b360811b600a86061a8153600a85049450846117c357509392505050565b6001600160a01b0384161580159061181557506001600160a01b03831615155b156111ba57600082815260086020526040808220815160c08101909252805482908290611841906124c2565b80601f016020809104026020016040519081016040528092919081815260200182805461186d906124c2565b80156118ba5780601f1061188f576101008083540402835291602001916118ba565b820191906000526020600020905b81548152906001019060200180831161189d57829003601f168201915b505050505081526020016001820180546118d3906124c2565b80601f01602080910402602001604051908101604052809291908181526020018280546118ff906124c2565b801561194c5780601f106119215761010080835404028352916020019161194c565b820191906000526020600020905b81548152906001019060200180831161192f57829003601f168201915b50505050508152602001600282018054611965906124c2565b80601f0160208091040260200160405190810160405280929190818152602001828054611991906124c2565b80156119de5780601f106119b3576101008083540402835291602001916119de565b820191906000526020600020905b8154815290600101906020018083116119c157829003601f168201915b505050505081526020016003820180546119f7906124c2565b80601f0160208091040260200160405190810160405280929190818152602001828054611a23906124c2565b8015611a705780601f10611a4557610100808354040283529160200191611a70565b820191906000526020600020905b815481529060010190602001808311611a5357829003601f168201915b50505050508152602001600482018054611a89906124c2565b80601f0160208091040260200160405190810160405280929190818152602001828054611ab5906124c2565b8015611b025780601f10611ad757610100808354040283529160200191611b02565b820191906000526020600020905b815481529060010190602001808311611ae557829003601f168201915b505050505081526020016005820154815250509050836001600160a01b0316856001600160a01b0316847f14c168f8c155ab4a003885311a215b3d73bb6dc0bb0e69701252bd8a638fbf388460000151604051611b5f9190612077565b60405180910390a45050505050565b611b788383611d7a565b611b856000848484611ba1565b61069d5760405162461bcd60e51b81526004016105fc906126f9565b60006001600160a01b0384163b15611c9757604051630a85bd0160e11b81526001600160a01b0385169063150b7a0290611be590339089908890889060040161274b565b6020604051808303816000875af1925050508015611c20575060408051601f3d908101601f19168201909252611c1d91810190612788565b60015b611c7d573d808015611c4e576040519150601f19603f3d011682016040523d82523d6000602084013e611c53565b606091505b508051600003611c755760405162461bcd60e51b81526004016105fc906126f9565b805181602001fd5b6001600160e01b031916630a85bd0160e11b149050611422565b506001949350505050565b60008072184f03e93ff9f4daa797ed6e38ed64bf6a1f0160401b8310611ce15772184f03e93ff9f4daa797ed6e38ed64bf6a1f0160401b830492506040015b6d04ee2d6d415b85acef81000000008310611d0d576d04ee2d6d415b85acef8100000000830492506020015b662386f26fc100008310611d2b57662386f26fc10000830492506010015b6305f5e1008310611d43576305f5e100830492506008015b6127108310611d5757612710830492506004015b60648310611d69576064830492506002015b600a831061049f5760010192915050565b6001600160a01b038216611dd05760405162461bcd60e51b815260206004820181905260248201527f4552433732313a206d696e7420746f20746865207a65726f206164647265737360448201526064016105fc565b6000818152600260205260409020546001600160a01b031615611e355760405162461bcd60e51b815260206004820152601c60248201527f4552433732313a20746f6b656e20616c7265616479206d696e7465640000000060448201526064016105fc565b611e436000838360016117f5565b6000818152600260205260409020546001600160a01b031615611ea85760405162461bcd60e51b815260206004820152601c60248201527f4552433732313a20746f6b656e20616c7265616479206d696e7465640000000060448201526064016105fc565b6001600160a01b038216600081815260036020908152604080832080546001019055848352600290915280822080546001600160a01b0319168417905551839291907fddf252ad1be2c89b69c2b068fc378daa952ba7f163c4a11628f55a4df523b3ef908290a45050565b6001600160e01b0319811681146112aa57600080fd5b600060208284031215611f3b57600080fd5b813561122d81611f13565b634e487b7160e01b600052604160045260246000fd5b600067ffffffffffffffff80841115611f7757611f77611f46565b604051601f8501601f19908116603f01168101908282118183101715611f9f57611f9f611f46565b81604052809350858152868686011115611fb857600080fd5b858560208301376000602087830101525050509392505050565b600082601f830112611fe357600080fd5b61122d83833560208501611f5c565b60006020828403121561200457600080fd5b813567ffffffffffffffff81111561201b57600080fd5b61142284828501611fd2565b60005b8381101561204257818101518382015260200161202a565b50506000910152565b60008151808452612063816020860160208601612027565b601f01601f19169290920160200192915050565b60208152600061122d602083018461204b565b60006020828403121561209c57600080fd5b5035919050565b80356001600160a01b03811681146120ba57600080fd5b919050565b600080604083850312156120d257600080fd5b6120db836120a3565b946020939093013593505050565b6000806000606084860312156120fe57600080fd5b612107846120a3565b9250612115602085016120a3565b9150604084013590509250925092565b60006020828403121561213757600080fd5b61122d826120a3565b6020808252825182820181905260009190848201906040850190845b818110156121785783518352928401929184019160010161215c565b50909695505050505050565b60c08152600061219760c083018961204b565b82810360208401526121a9818961204b565b905082810360408401526121bd818861204b565b905082810360608401526121d1818761204b565b905082810360808401526121e5818661204b565b9150508260a0830152979650505050505050565b600080600080600060a0868803121561221157600080fd5b853567ffffffffffffffff8082111561222957600080fd5b61223589838a01611fd2565b9650602088013591508082111561224b57600080fd5b61225789838a01611fd2565b9550604088013591508082111561226d57600080fd5b61227989838a01611fd2565b9450606088013591508082111561228f57600080fd5b61229b89838a01611fd2565b935060808801359150808211156122b157600080fd5b506122be88828901611fd2565b9150509295509295909350565b602081526000825160c060208401526122e760e084018261204b565b90506020840151601f1980858403016040860152612305838361204b565b92506040860151915080858403016060860152612322838361204b565b9250606086015191508085840301608086015261233f838361204b565b925060808601519150808584030160a08601525061235d828261204b565b91505060a084015160c08401528091505092915050565b608081526000612387608083018761204b565b8281036020840152612399818761204b565b604084019590955250506001600160a01b039190911660609091015292915050565b600080604083850312156123ce57600080fd5b6123d7836120a3565b9150602083013580151581146123ec57600080fd5b809150509250929050565b6000806000806080858703121561240d57600080fd5b612416856120a3565b9350612424602086016120a3565b925060408501359150606085013567ffffffffffffffff81111561244757600080fd5b8501601f8101871361245857600080fd5b61246787823560208401611f5c565b91505092959194509250565b6000806040838503121561248657600080fd5b61248f836120a3565b915061249d602084016120a3565b90509250929050565b600082516124b8818460208701612027565b9190910192915050565b600181811c908216806124d657607f821691505b6020821081036124f657634e487b7160e01b600052602260045260246000fd5b50919050565b6020808252602d908201527f4552433732313a2063616c6c6572206973206e6f7420746f6b656e206f776e6560408201526c1c881bdc88185c1c1c9bdd9959609a1b606082015260800190565b601f82111561069d57600081815260208120601f850160051c810160208610156125705750805b601f850160051c820191505b8181101561258f5782815560010161257c565b505050505050565b815167ffffffffffffffff8111156125b1576125b1611f46565b6125c5816125bf84546124c2565b84612549565b602080601f8311600181146125fa57600084156125e25750858301515b600019600386901b1c1916600185901b17855561258f565b600085815260208120601f198616915b828110156126295788860151825594840194600190910190840161260a565b50858210156126475787850151600019600388901b60f8161c191681555b5050505050600190811b01905550565b60408152600061266a604083018561204b565b828103602084015261267c818561204b565b95945050505050565b60008351612697818460208801612027565b8351908301906126ab818360208801612027565b01949350505050565b60208082526025908201527f4552433732313a207472616e736665722066726f6d20696e636f72726563742060408201526437bbb732b960d91b606082015260800190565b60208082526032908201527f4552433732313a207472616e7366657220746f206e6f6e20455243373231526560408201527131b2b4bb32b91034b6b83632b6b2b73a32b960711b606082015260800190565b6001600160a01b038581168252841660208201526040810183905260806060820181905260009061277e9083018461204b565b9695505050505050565b60006020828403121561279a57600080fd5b815161122d81611f1356fea264697066735822122026394776a419667831a3673aa94af025b6cd60d3f2aa7a8d15f60a57c747d61464736f6c63430008130033",
  "linkReferences": {},
  "deployedLinkReferences": {}
}